:020000040800F2
:10000000500C002081010008890100088B010008C4
:100010008101000800E70000000325500001000DE9
:100020000000000000000000000000008D0100083A
:1000300000000000000000008F010008910100088E
:100040009301000893010008930100089301000840
:100050009301000893010008930100089301000830
:1000600093010008B50700089301000893010008F8
:100070009301000893010008930100089301000810
:10008000711B0008930100080000000093010008A4
:1000900093010008930100089301000893010008F0
:1000A000930100089301000893010008BD1B00089C
:1000B0009301000800000000930100080000000008
:1000C00000F002F800F030F80CA030C8083824180E
:1000D0002D18A246671EAB4654465D46AC4201D180
:1000E00000F022F87E460F3E0FCCB6460126334282
:1000F00000D0FB1AA246AB4633431847D01F00007E
:10010000F01F00000023002400250026103A01D330
:1001100078C1FBD8520700D330C100D50B607047BF
:100120001FB51FBD10B510BD00F059F91146FFF7FE
:10013000F7FF01F0C1FD00F071F903B4FFF7F2FF22
:1001400003BC00F077F9000070B505460C46164672
:1001500002E00FCC0FC5103E102EFAD2082E02D3AB
:1001600003CC03C5083E042E07D301CC01C5361FBE
:1001700003E021782970641C6D1C761EF9D270BDD5
:100180000748804707480047FEE7FEE7FEE7FEE72F
:10019000FEE7FEE704480549054A064B70470000A4
:1001A000FD1A0008C100000850040020500C002077
:1001B000500600205006002030B5441C03E00178B2
:1001C000401C00290DD08107F9D10B4BDD0104C87B
:1001D000D11A91432940FAD0001B0A0603D0C01E51
:1001E00030BD001B30BD0A0401D0801E30BD0902A5
:1001F000FCD0401E30BD000001010101F8B5042A09
:100200002CD3830712D00B78491C0370401C521E5C
:1002100083070BD00B78491C0370401C521E8307C8
:1002200004D00B78491C0370401C521E8B079B0F97
:1002300005D0C91ADF002023DE1B08C90AE0FFF73A
:1002400083FFF8BD1D4608C9FD401C46B4402C4341
:1002500010C0121F042AF5D2F308C91A521EF0D496
:100260000B78491C0370401C521EEAD40B78491CC1
:100270000370401C012AE4D409780170F8BD002203
:1002800003098B422CD3030A8B4211D300239C46D3
:100290004EE003460B433CD4002243088B4231D34B
:1002A00003098B421CD3030A8B4201D394463FE0DF
:1002B000C3098B4201D3CB01C01A524183098B423F
:1002C00001D38B01C01A524143098B4201D34B0128
:1002D000C01A524103098B4201D30B01C01A52418B
:1002E000C3088B4201D3CB00C01A524183088B4212
:1002F00001D38B00C01A524143088B4201D34B00FB
:10030000C01A5241411A00D201465241104670476C
:100310005DE0CA0F00D04942031000D34042534071
:1003200000229C4603098B422DD3030A8B4212D331
:10033000FC22890112BA030A8B420CD38901921163
:100340008B4208D3890192118B4204D389013AD0A0
:10035000921100E08909C3098B4201D3CB01C01A75
:10036000524183098B4201D38B01C01A5241430988
:100370008B4201D34B01C01A524103098B4201D376
:100380000B01C01A5241C3088B4201D3CB00C01AE3
:10039000524183088B4201D38B00C01A5241D9D2FB
:1003A00043088B4201D34B00C01A5241411A00D27C
:1003B0000146634652415B10104601D34042002B78
:1003C00000D54942704763465B1000D3404201B5F7
:1003D0000020C046C04602BD704770477047754652
:1003E00000F024F8AE46050069465346C008C00038
:1003F000854618B020B5FFF7CDFE60BC0027490840
:10040000B6460026C0C5C0C5C0C5C0C5C0C5C0C5AC
:10041000C0C5C0C5403D49008D46704710B5044673
:10042000C046C0462046FFF788FE10BD0048704712
:10043000EC03002001491820ABBEFEE726000200B5
:10044000704770B58C180578401C6B075B0F01D1A5
:100450000378401C2A1106D10278401C03E006787C
:10046000401C0E70491C5B1EF9D12B0705D40023DC
:10047000521E0DD40B70491CFAE70378401CCB1AAE
:10048000921C03E01D780D70491C5B1C521EF9D5AF
:10049000A142D8D3002070BD014988607047000098
:1004A000002701400648C068012149020843044969
:1004B000C8600846C068491588430149C86070474C
:1004C0000010024030B500BF8468E40FE407002C40
:1004D000FAD1846801252C438460C2600024046141
:1004E0004360416130BD816270478168C907C90FAF
:1004F000002909D0816802221143816000BF816810
:10050000C907C90F0029FAD181680122D207114316
:100510008160704710B5021207490B880988491C91
:10052000054C21800549CA5421460A880988491C7E
:1005300021800249885410BD50000020CD020020C7
:1005400030B502460B460C48002112E0555C68406D
:1005500000240AE0C507ED0F002D03D04010074D21
:10056000684000E04010651CACB2082CF2DB4D1C6A
:10057000A9B29942EADB30BDFFFF000001A00000F4
:10058000F8B506460C461648408B44433146204693
:10059000FFF775FE04461248008B11492031498847
:1005A000401A64214843054650212846FFF771FE52
:1005B0000546A80029180A48008B642250430F18EA
:1005C0000A2078437D21C9006143401A00902946E2
:1005D0000098FFF75EFEFA3000900098F8BD00002A
:1005E000A0F7FF1F10B500241048006800280BD0AA
:1005F0000E48006801F046FD7D21C900884201D9FE
:10060000012002E0002000E0002000280BD0084973
:10061000084801F0F7F80849084801F0F3F8012408
:10062000002002490860204610BD00000C00002098
:1006300000FB000000F8000000FF000000FC0000CC
:1006400010B5554840692F21490408435249486173
:100650000846C069022108434F49C86108464069FD
:10066000012108434C4948610846806901218903FA
:100670000843494988610846806901210843464981
:1006800088610846806949150843434988610846DE
:10069000C069490408434049C86100231A460D2136
:1006A0003E4800F051FA00231A460E213B4800F064
:1006B0004BFA00231A460F21384800F045FA002370
:1006C0001A460621354800F03FFA00231A46072152
:1006D000324800F039FA00231A4608212F4800F06A
:1006E00033FAFF2201320A212C4800F0E7F90021F9
:1006F0000920C00600F0D6F901210920C00600F04B
:10070000D1F902210920C00600F0CCF9032109200B
:10071000C00600F0C7F905210920C00600F0C2F9A3
:1007200006210920C00600F0BDF907210920C006F6
:1007300000F0B8F90421194800F0B4F900210920AB
:10074000C00600F0AFF9012000F09EFA0120C003BE
:1007500001F090F8FFF7A6FE03208005FFF79CFE4E
:100760000F48FFF7C2FE0F490D48FFF7BCFE0023FC
:100770000D4A03210A48FFF7A5FE02E00B480C4989
:10078000086007488068C00FC0070028F6D100F055
:100790009FFB62B610BD0000001002400008004838
:1007A00000240140EF40030001100000AAAA00004D
:1007B00000300040022003494860012002490870CF
:1007C00070470000000002400000002000B5014614
:1007D00000F05EF80D4800690D4A10400B4A1061A8
:1007E0001046006902221043084A10611046416118
:1007F000006940221043054A106100F049F803489F
:10080000006902229043014A106100BD00200240AD
:10081000C9DEFFFF034800698021084301490861E0
:10082000704700000020024000B5024600F030F89A
:100830000C4800690C4B18400A4B186118460069B7
:1008400001231843074B1861118000F021F8080CB0
:10085000508000F01DF80348006940084000014B3B
:10086000186100BD00200240C9DEFFFF0548006995
:1008700080210840002804D003480249486003480A
:10088000486070470020024023016745AB89EFCDE7
:1008900000BF0348C068C007C00F0028F9D17047E7
:1008A0000020024008B52C4800692B49C96808405F
:1008B0000421084000284DD028480078012804D0A1
:1008C000032822D004283DD135E00F2202212448FC
:1008D00000F090FF2348008800902348234A91218C
:1008E00003681F481C3000F0D5F91B48C06804217C
:1008F00088431949C86002201849087040221146EF
:100900001A48283801F08BF923E01348C068042105
:1009100088431149C8600020104908700821144814
:1009200000F04DF8114828380068042108430F49A9
:10093000283908600DE001200E49087000200749A1
:10094000087006E0044800690421884302490861F0
:1009500000BF00BF08BD0000000400402A000020C6
:1009600000000240300000202C0000202838014008
:100970000004004829000020094B1870094A526AF7
:100980005218084B9A631A46126904239A43054B7E
:100990001A611A46D26804231A43024BDA60704780
:1009A0002A000020000400400246106901238B4009
:1009B0001840002801D0012070470020FCE70122E8
:1009C0008A4012048261704701228A408261704726
:1009D000F8B50C460126A640009667000326BE40E7
:1009E00035460668AE432E4F2F403E430660102624
:1009F0001E40002E04D04668009F3E43466003E040
:100A00004668009FBE4346608168A943012676037D
:100A10001E40002E03D00E462E43314608E001262C
:100A200036031E40002E03D01D4EF6432E403143A8
:100A30008160C668AE433146FF2601361E40002E57
:100A400004D0174EF6432E40314307E001267602CC
:100A50001E40002E02D0124E2E403143C160072CA2
:100A600010DD416A2646083EB7000F26BE400F46FD
:100A7000B74339462646083EB7001646BE403143C6
:100A800041620BE0016AA7000F26BE400F46B74344
:100A90003946A7001646BE4031430162F8BD00004A
:100AA000AAAAAAAA10B54C000323A3401A460368B9
:100AB00013430360C3689343C36010BDF0B50C4695
:100AC00013460126A640354667000326BE40314640
:100AD00006688E43066010261E40002E03D046682E
:100AE0002E43466002E04668AE43466082688A4311
:100AF000012676031E40002E03D016460E433246D2
:100B000007E0012636031E40002E02D00D4E0E4097
:100B100032438260C6688E433246FF2601361E404D
:100B2000002E03D0074E0E40324308E00126760225
:100B30001E40002E03D0034EF6430E403243C260E7
:100B4000F0BD000055555555FFB50C460126A64091
:100B5000354667000326BE40314606688E43204F67
:100B60000F403E43066010261E40002E03D046680C
:100B70002E43466002E04668AE43466082688A4380
:100B8000012676031E40002E03D016460E43324641
:100B900007E0012636031E40002E02D0104E0E4004
:100BA00032438260C6688E433246FF2601361E40BD
:100BB000002E03D00A4E0E40324308E00126760292
:100BC0001E40002E03D0064EF6430E403243C26054
:100BD000029E002E01D0856101E02E048661FFBDDA
:100BE00055555555014648687047F1B5009800F0D5
:100BF000E5F90646002E24D0307A07073F0F7468C7
:100C0000002F06D0012F06D0022F0AD0042F18D1B2
:100C100008E02078F8BD65782D0220780543284645
:100C2000F8E700BF31880098814204D165782D0231
:100C30002078054303E0E5782D02A0780543284697
:100C4000E8E70020E6E710B504462046FFF7CDFFB1
:100C500010BD0146087800024A7810437047000032
:100C600070B504460648408B064948430546214670
:100C70002846FFF704FB054628466421484370BD1B
:100C8000A0F7FF1FE88000000149086070470000DE
:100C90000074004030B5039C002505608260C3608D
:100CA0004460016030BD0000F8B505460C460020E8
:100CB0002B4908608B15002207212A48FFF788FE80
:100CC0001023002206212748FFF782FE102300226E
:100CD00008212448FFF738FF234B224629462048A5
:100CE00000F035F91E480068FF21013108431C4916
:100CF00008600846806801210843194988601B2064
:100D000001218140194A116000BF0A26802020403D
:100D1000002801D0701CC6B2A007800F002801D0A7
:100D2000701CC6B228013146FFF7A9FA451C2946B6
:100D30000D48FFF7A4FA0E49086080200D4B084AC1
:100D40002432A12100900C48FFF7A4FF00200B499A
:100D500008700B4908700B49087005480068F8BD19
:100D600000380140000400480024F40000E100E0E5
:100D7000240000204C010020300002402000002010
:100D8000280000202A000020022801DB811EC8B2B2
:100D9000072800DD07200449044A11601146486015
:100DA00000211160704700005555000000300040E0
:100DB000F8B506460C46A707BF0F2006C50E042D42
:100DC00002DD0025002705E004202040002801D096
:100DD000802007432B0000F029FF05040C141C247D
:100DE0002C0039464B20C001FFF75EFF1E4908600A
:100DF0001FE039464B200002FFF756FF1A490860F2
:100E000017E039464B204002FFF74EFF16490860B5
:100E10000FE03946E1200002FFF746FF1249086063
:100E200007E03946E1204002FFF73EFF0E49086027
:100E300000BF00BF0C480068410040180A49086024
:100E40000A490E7008460078012803DB084600783E
:100E5000F72802DDC8200549087000200449087001
:100E600000F0F0FBF8BD00004C0000203400002032
:100E70003500002030B50B46012B06D0022B0ED0DA
:100E8000032B12D0042B20D119E08469FF252D02F9
:100E90002C4021460C4614432146816115E08469AB
:100EA000E1B21402214381610FE0C469FF252D02E4
:100EB0002C4021460C4614432146C16105E0C4691B
:100EC000E1B214022143C16100BF00BF30BD000088
:100ED00008B500F0BBFD7D21C90112480068FFF78D
:100EE000CEF9401E10490860022000231A460F2147
:100EF00000900E4800F01EF8002201210B48FFF779
:100F0000B9FF094800680949486300204862102079
:100F100001218140064A116000BF044800F03EFDF7
:100F200008BD00001C000020140000200004004048
:100F300000E100E030B5039C002505604360C4601B
:100F400081626D1EC56202600125456130BDFFB53D
:100F500081B0044616461F460020206063208001B1
:100F6000A06080203040002802D00120400300E033
:100F7000002060600097009F78000299FFF77FF9DA
:100F800005466D1C6D08A8B2E060B007800F01280F
:100F900003D0022804D0002505E00525AD0202E0BB
:100FA0000B256D0200BF00BF28460D2108430546F2
:100FB000256005B0F0BD03207047000010B5024663
:100FC000154923E0088890421FDC0888001D9042E4
:100FD0001BDB087A03071B0F002B06D0012B05D063
:100FE000022B05D0042B06D103E000BF012402E050
:100FF00000BF022400BF00BF0888904205DC0888BB
:101000000019904201DD084610BD0C3148680028E7
:10101000D8D100BFF8E7000054000020F0B589B037
:10102000FD480088401CFC490880002003900120F6
:1010300002900020F9490880F9480078002807D07C
:10104000F8480088401CF74908800A2009B0F0BD24
:10105000F5480088042806DAF4480088401CF34963
:1010600008800A20F2E7F0480088801E01B2F048AC
:10107000FFF766FA0890EC480088401EEC49085CCF
:101080000790079800020790E7480088801E085CD8
:1010900007990843079007990898884206D0E348C3
:1010A0000088401CE14908800A20CFE7E04800782A
:1010B000E0490978884205D0DD480078002801D051
:1010C0000120C3E7DC480088401CDB490880DB487E
:1010D0000078002812D0D6484078082807D1D44894
:1010E0008078002803D1D248C078012806D0D4489F
:1010F0000088401CD24908800120A7E7CC484078EE
:1011000006900020C5490880C9480178C348028874
:101110000088401CC14B1880CA488154C44841789B
:10112000184602880088401C1880C64881540698DA
:1011300008287DD006DC032809D0042808D006281A
:1011400074D14FE0102872D01128F9D1D1E100BF3D
:10115000B5480088082809D0B4480088401CB34925
:1011600008800020AD49088001206FE7B048801C4E
:10117000FFF76FFD0546AE48001DFFF76AFD064606
:10118000012E01DB7D2E02DD03200390E5E1A8198D
:10119000A84202DA02200390DFE1002004909F4879
:1011A0000088401C9D4908802C4614E006980328BE
:1011B00004D12046FFF719FD019003E02046FFF718
:1011C00042FD01900198FFF7A5F90498801CC0B278
:1011D0000490601C84B2A819A042E7DC99490498E5
:1011E0008870BAE190480088082809D08F480088A4
:1011F000401C8E490880002088490880012025E78E
:101200008B48801CFFF725FD05468948001DFFF728
:1012100020FD05902846059900F032FB002801D0FA
:10122000042003900020029097E101E092E1E5E0C4
:101230007F488078002802D0012003908DE17C480F
:101240008178764802880088401C744B18807D485D
:1012500081547748C178184602880088401C18805D
:10126000784881547248801CFFF7F3FC0746002F32
:1012700003D0012F01D0032F47D100200290002F6F
:1012800004D0012F03D0032F3ED127E03CE0664875
:101290000088082809D065480088401C63490880F8
:1012A00000205E4908800120D0E66148407900288E
:1012B00007D15F480079002806D05D480079FF28F3
:1012C00002D0032003901FE059480079002801D084
:1012D00000F0B8F900205949087015E0524800881C
:1012E000082809D051480088401C50490880002037
:1012F0004A4908800120A9E64D484079002802D0DB
:101300000320039000E000BF77E0474800880828EA
:1013100009D046480088401C4449088000203F49C5
:101320000880012092E64248007941494979084302
:10133000002802D1032003900FE1B81E030000F043
:1013400075FC130B58205858585858262B30353AEE
:101350003F44494E585358003B48008801122F48DB
:1013600002880088401C2D4B18803648815436482E
:101370000178184602880088401C18803148815442
:101380003AE001202D4908700220029034E000F07C
:1013900059F9002002902FE01F480088FFF7BAF8A3
:1013A0002AE022480088FFF7B5F825E027480088A2
:1013B000FFF7B0F820E020480088FFF7ABF81BE00B
:1013C0001F480088FFF7A6F816E021480088FFF7BD
:1013D000A1F811E01F480088FFF79CF80CE00E48C8
:1013E0000088FFF797F807E000200E490880029078
:1013F00002E00120039000BF00BFAEE00A48008871
:10140000092829DA09480088401C0849088000207A
:1014100002490880012019E6380000205000002011
:1014200048000020460000204A0000203A0000202A
:10143000CC010020340000203E00002035000020B8
:1014400040000020CD020020360000203C0000209B
:1014500042000020440000207348FFF7FAFB0546D5
:101460007148801CFFF7F5FB06466F48801E8079A7
:101470000490012E0BDB7B2E09DC71000498814265
:1014800005D17000093069490988884202D00320DB
:10149000039062E0A819A84202DA022003905CE0FF
:1014A0002C4611E0611B4A005F49491D5018FFF7A7
:1014B000D0FB05902046059900F0E2F9002801D004
:1014C00004200390601C84B2A819A042EADC022424
:1014D0000CE05548801E015D554802880088401C7C
:1014E000534B188053488154601C84B2062CF0DBA7
:1014F00033E04E480088042809D04F480088401C3B
:101500004D49088000204A49088001209EE51621A7
:10151000474802880088401C454B18804548815444
:1015200000240BE04548015D414802880088401CCA
:101530003F4B18803F488154601C84B2152CF1DB6E
:10154000FF213B4802880088401C394B18803948ED
:10155000815402E00120039000BF00BF02980228DE
:101560005BD00398002822D00020314908802E4803
:10157000801E01782E4802880088401C2C4B188061
:101580002C4881542848801E407880210843194601
:101590000A880988491C19802649885419460A88EE
:1015A0000988491C03981980224988541AE0029836
:1015B000002817D11E4908800DE01B48801E1C49D9
:1015C0000988405C1B491A4A1288885418480088C8
:1015D000401C1749088015480088801E1449098856
:1015E0008842EADC1248008801B21248FEF7A8FFE0
:1015F00008900898C1B20E4802880088401C0C4B25
:1016000018800C48815408980112184602880088F6
:10161000401C18800748815404E009480088401C99
:1016200007490880002011E5CE0100204A00002073
:1016300050000020CD0200203A000020BA2000080F
:101640004000002000200949088009490880094914
:101650000880094908800949088009490880094922
:101660000880094908800949088070474600002021
:101670004400002042000020400000203E000020E6
:101680003C0000203A0000203800002036000020F6
:1016900010B50020264908701DE026480088FF2864
:1016A0000ADC00F0D1FA23490A880988491C214B39
:1016B00019802149885401E000F0C6FA1F48406AA9
:1016C0001F49096840181D49C86308460069082178
:1016D00088431A49086100F083FC0028DDD11748CF
:1016E00000690821084000281FD0124800880028FF
:1016F0001BD01248006988431049086100F0C6FAFF
:10170000002802D001200F490870FFF787FC0E481F
:101710000088002804D00C4801880C4800F080FCA8
:10172000002004490880074908700148007810BD6E
:10173000520000204A000020CC010020000400409C
:101740004C0000204800002050000020CD02002066
:10175000F8B50746062421461E48FEF7F1FE054669
:1017600021461D48FEF7ECFE06461C4800888542CF
:1017700012D1AE4203D11A480088A84206D00120F7
:101780001849088000F086FC1749086006221149B4
:101790001648FEF733FD1CE01148008886420CD144
:1017A00006220D491148FEF729FD02200D49088047
:1017B00000F070FC0C4908600BE006220C490B4855
:1017C000FEF71CFD03200749088000F063FC064972
:1017D0000860F8BD00F8000000FC000000FB0000FD
:1017E00000FF0000100000200C000020040000207A
:1017F000A420000810B513019B1A8C00A34043607D
:1018000010BD0000FEB504460D4606211548FEF742
:1018100097FE00900020144908602646FFF726F83E
:10182000FFF736F83046FEF7D1FFFFF731F8022018
:1018300001900C4F09E002CF3046FEF7F5FF361D50
:10184000FFF726F809480A4908600198411E0191EE
:101850000028F0D128460099FEF7E6FFFEF7DAFFF0
:10186000FEBD0000040000200C000020AAAA000019
:10187000003000400149C86070470000007400401B
:10188000F3B581B00C460198FFF798FB0546002D93
:101890004CD007214902A8680840002801D1012046
:1018A000FEBDFFF788FB074601218902A8680840B2
:1018B000002803D0F807C00F002809D001214902F1
:1018C000A8680840002805D002203840002801D12F
:1018D0000120E5E701218903A8680840002802D01B
:1018E000012013490870287A07073F0F6E68002F00
:1018F00006D0012F07D0022F0AD0042F16D108E0FE
:1019000034700020CCE73470241274700020C7E7D4
:1019100000BF29880198814203D134702412747069
:1019200002E0B4702412F4700020B9E70120B7E798
:10193000520000200168012211430160704700003D
:1019400008B5104800F02FF80A200F4B0F4A104935
:1019500000900C48FFF79EF90920012181400D4AB3
:10196000116000BF0748FFF7E5FF00200A49087033
:10197000064840388068042108430449403988609B
:1019800008BD00000800024038010020402401404A
:10199000A205000000E100E0000000200168012233
:1019A00011430160704701684908490001607047B0
:1019B00023480068012108432149086000BF2048EE
:1019C0000068022108400028F9D01D4800681D4920
:1019D00008401B490860002048600120C8620020C0
:1019E0000863084640680121C90408431449486057
:1019F000084600680121090608431149086000BF34
:101A00000F480068002801D1012000E000200121DA
:101A1000490608400028F3D110200B490860084807
:101A20004068022108430649486000BF04484068F6
:101A30000C2108400828F9D100200149886070472E
:101A400000100240F8FF000000200240F8B5002519
:101A5000002400260027244840680C210840054641
:101A6000002D04D0042D06D0082D2AD107E01F48F0
:101A70001F49086029E01F481D49086025E01A48F1
:101A800040680F2189040840044617484068012136
:101A9000090408400646A00C841C002E04D11548F9
:101AA0006043134908600BE00F48C06A0007000F4D
:101AB000471C39460F48FEF7E2FB60430C490860BB
:101AC00003E00A480A49086000BF00BF06484068B2
:101AD000F0210840000908490D5C05480068E8400D
:101AE00003490860F8BD00000010024000127A00AF
:101AF0001C00002000093D00AA20000819480068C9
:101B00000121084317490860084640681649084003
:101B100014494860084600681449084011490860A3
:101B2000084600680121890488430E490860084678
:101B300040683F21090488430A4948600846C06A52
:101B400000090001C8620846006BFF215431884338
:101B5000044908630846406B400840004863002081
:101B600088607047001002400CB8FFF8FFFFF6FED7
:101B700010B50E48006902210840002813D00B4818
:101B8000C068084000280ED009480068401C084979
:101B900008600848054908610846406B064909681D
:101BA000401802494863FEF77DFE10BD0004004066
:101BB00018000020FDFF00001400002010B511489F
:101BC00000684021084000280FD00E48C069084036
:101BD00000280AD0402211460A4800F019F80A48A5
:101BE000006841080320FEF7C7FE0648C0690007E9
:101BF000000F002805D02F20024908620120034968
:101C0000087010BD00380140240000202000002092
:101C1000036A0B4303620368934303607047036ADC
:101C20000B430362036813430360704730B4744688
:101C3000641E2578641CAB4204D3635D5B00E3182B
:101C400030BC18471D46F8E710B50D48FEF7CAFF2F
:101C50008021081A0B49097888420FD009490A786F
:101C60000978491C074B19700749885C194609789F
:101C7000802902DB00211A46117010BD0020FCE70C
:101C800030000240280000204C01002072B60648B7
:101C900001780020044A107062B6002901D00120AA
:101CA00070470020FCE70000200000200149086880
:101CB00070470000180000201FB5FFF7F7FF0390E2
:101CC000FFF7F4FF0290FFF7F1FFFFF7EFFFFFF7D9
:101CD000EDFF00BF0127002001900024FFF768FE00
:101CE0000420FFF751F8FEF7ABFC0020FFF730FDB2
:101CF00004E0B348B3490860FEF774FCB2480068DA
:101D00000028F6D1B14908782021FFF751F8FFF7F4
:101D100017FE00BFFFF7BCFC002803D000F0BAF9A3
:101D2000A9490860FEF75EFCA9480078002838D071
:101D3000002607E07000A749085A7100A64A5052D1
:101D4000701CC6B20A2EF5DBA249488AFEF788FF4E
:101D500005467D21C9002846FEF791FA9E49488331
:101D60009C4A118A508AFEF70BFC9B4908832D0B75
:101D700098480088684300907D21C9000098FEF7CC
:101D80007EFA9549888293488088684300907D2137
:101D9000C9000098FEF773FA8F49C882FFF7D0FD9B
:101DA00000BF019800287CD0002C04D0012C4FD01B
:101DB000022C4CD17EE0029800F064F9FF212D3115
:101DC00088420ED808218548FEF7EEFD002804D091
:101DD00008218248FEF7F3FD03E008217F48FEF763
:101DE000F3FD029800F04EF9FF212D31884215D302
:101DF000029800F047F9FF21F53188420ED80621FC
:101E00007648FEF7D1FD002804D006217348FEF77E
:101E1000D6FD03E006217148FEF7D6FD029800F0DA
:101E200031F919214901884211D3FFF73FFF029090
:101E300007216A48FEF7B8FD002804D0072167484B
:101E4000FEF7BDFD03E007216448FEF7BDFD7EE01F
:101E5000029800F017F94B21C90088420ED80621DC
:101E60005E48FEF7A1FD002804D006215B48FEF77E
:101E7000A6FD03E006215948FEF7A6FD029800F0F2
:101E800001F94B210901884213D3FFF70FFF02909C
:101E900007215248FEF788FD002806D007214F4849
:101EA00000E055E0FEF78BFD03E007214B48FEF70D
:101EB0008BFD4CE0029800F0E5F8192149018842B9
:101EC0000ED808214548FEF76FFD002804D00821F0
:101ED0004248FEF774FD03E008214048FEF774FD18
:101EE000029800F0CFF819214901884215D30298D1
:101EF00000F0C8F87D21090188420ED80621374834
:101F0000FEF752FD002804D006213448FEF757FDA5
:101F100003E006213148FEF757FD029800F0B2F8C1
:101F20007D210901884211D3FFF7C0FE02900721ED
:101F30002A48FEF739FD002804D007212748FEF77C
:101F40003EFD03E007212548FEF73EFD00BF00BF30
:101F50000A212248FEF728FD002809D1002F00D1D0
:101F6000D8E6FFF7A3FE0390002701200190D1E6F9
:101F7000002FF5D10127039800F084F8FF21F531F7
:101F800088420ED308211548FEF719FD0721134892
:101F9000FEF715FD06211148FEF711FD0020019006
:101FA000B8E6002C04D0012C04D0022C06D103E0AA
:101FB000641C03E0641C01E0002400BFAAE60000EA
:101FC000AAAA0000003000400C00002000F8000029
:101FD0000000002038010020CE0300200008004847
:101FE00010B50D48FEF7FEFD8021081AC4B20B485B
:101FF0000078A0420ED009480078A04205DD6018A4
:1020000006490978401AC0B210BD04480078201A69
:10201000C0B2F9E70020F7E73000024028000020B6
:1020200070B505460C4611480068042188430F49E5
:102030000860002C03D12846FEF7BEF884B20C4895
:1020400005600C48048001200B49087072B6082115
:102050000A48FEF7B9FC0A480068420080184108A7
:102060000120FEF789FC62B670BD00000038014017
:102070002C000020300000202A000020000400482E
:1020800024000020014602480268501A70470000F0
:102090001800002002490868002800D1401E70473F
:1020A0001800002001007B00C801000000000000B3
:1020B0000000010203040607080950475520535445
:1020C000415254424F41524400150000EC20000898
:1020D0000000002038010000420400085C210008D4
:1020E00038010020180B000004010008011D043411
:1020F0006CDC02320113E2032A200829415AE40C65
:1021000032035AE60C32045AE80C32051AEA0C4142
:1021100032645ACE1832655AD00C32665AD20C321A
:10212000675AD40C32685AD60C32695AD80C326AC3
:102130005ADA0C326B5ADC0C326C5ADE0C326D5AA5
:10214000E00C198C2994122022441AE90C1A060C6E
:0C2150001A010C1998115A080CC100006B
:04000005080000C12E
:00000001FF
